{
  "contractName": "product",
  "abi": [
    {
      "inputs": [
        {
          "internalType": "bytes32",
          "name": "",
          "type": "bytes32"
        }
      ],
      "name": "vProducts",
      "outputs": [
        {
          "internalType": "bool",
          "name": "",
          "type": "bool"
        }
      ],
      "stateMutability": "view",
      "type": "function",
      "constant": true
    },
    {
      "inputs": [
        {
          "internalType": "bytes32",
          "name": "productId",
          "type": "bytes32"
        },
        {
          "internalType": "bytes32",
          "name": "pOwner",
          "type": "bytes32"
        }
      ],
      "name": "setProduct",
      "outputs": [],
      "stateMutability": "nonpayable",
      "type": "function"
    },
    {
      "inputs": [],
      "name": "viewProducts",
      "outputs": [
        {
          "internalType": "bytes32[]",
          "name": "",
          "type": "bytes32[]"
        },
        {
          "internalType": "bytes32[]",
          "name": "",
          "type": "bytes32[]"
        },
        {
          "internalType": "bytes32[]",
          "name": "",
          "type": "bytes32[]"
        }
      ],
      "stateMutability": "view",
      "type": "function",
      "constant": true
    },
    {
      "inputs": [
        {
          "internalType": "bytes32",
          "name": "sProductId",
          "type": "bytes32"
        }
      ],
      "name": "sellProduct",
      "outputs": [],
      "stateMutability": "nonpayable",
      "type": "function"
    }
  ],
  "bytecode": "0x608060405234801561001057600080fd5b506106b8806100206000396000f3fe608060405234801561001057600080fd5b506004361061004c5760003560e01c806301c2d2f2146100515780636158b5751461006d57806375d7b02714610089578063f9f24da1146100b9575b600080fd5b61006b60048036038101906100669190610425565b6100d9565b005b61008760048036038101906100829190610452565b6101cb565b005b6100a3600480360381019061009e9190610425565b6102be565b6040516100b091906104ad565b60405180910390f35b6100c16102de565b6040516100d093929190610586565b60405180910390f35b6000806000808080549050111561013957600091505b600080549050821015610138578360008381548110610111576101106105d2565b5b906000526020600020015403610125578190505b81806101309061063a565b9250506100ef565b5b6002818154811061014d5761014c6105d2565b5b906000526020600020015492507f546572736564696100000000000000000000000000000000000000000000000083036101c5577f546964616b205465727365646961000000000000000000000000000000000000600282815481106101b6576101b56105d2565b5b90600052602060002001819055505b50505050565b6003600083815260200190815260200160002060009054906101000a900460ff16156101f657600080fd5b60016003600084815260200190815260200160002060006101000a81548160ff02191690831515021790555060008290806001815401808255809150506001900390600052602060002001600090919091909150556001819080600181540180825580915050600190039060005260206000200160009091909190915055600280600181540180825580915050600190039060005260206000200160007f54657273656469610000000000000000000000000000000000000000000000009091909150555050565b60036020528060005260406000206000915054906101000a900460ff1681565b60608060606000600160028280548060200260200160405190810160405280929190818152602001828054801561033457602002820191906000526020600020905b815481526020019060010190808311610320575b505050505092508180548060200260200160405190810160405280929190818152602001828054801561038657602002820191906000526020600020905b815481526020019060010190808311610372575b50505050509150808054806020026020016040519081016040528092919081815260200182805480156103d857602002820191906000526020600020905b8154815260200190600101908083116103c4575b50505050509050925092509250909192565b600080fd5b6000819050919050565b610402816103ef565b811461040d57600080fd5b50565b60008135905061041f816103f9565b92915050565b60006020828403121561043b5761043a6103ea565b5b600061044984828501610410565b91505092915050565b60008060408385031215610469576104686103ea565b5b600061047785828601610410565b925050602061048885828601610410565b9150509250929050565b60008115159050919050565b6104a781610492565b82525050565b60006020820190506104c2600083018461049e565b92915050565b600081519050919050565b600082825260208201905092915050565b6000819050602082019050919050565b6104fd816103ef565b82525050565b600061050f83836104f4565b60208301905092915050565b6000602082019050919050565b6000610533826104c8565b61053d81856104d3565b9350610548836104e4565b8060005b838110156105795781516105608882610503565b975061056b8361051b565b92505060018101905061054c565b5085935050505092915050565b600060608201905081810360008301526105a08186610528565b905081810360208301526105b48185610528565b905081810360408301526105c88184610528565b9050949350505050565b7f4e487b7100000000000000000000000000000000000000000000000000000000600052603260045260246000fd5b7f4e487b7100000000000000000000000000000000000000000000000000000000600052601160045260246000fd5b6000819050919050565b600061064582610630565b91507fffffffffffffffffffffffffffffffffffffffffffffffffffffffffffffffff820361067757610676610601565b5b60018201905091905056fea26469706673582212200b7d7ca587a9f25fa28c56c41a6682f17e3348f3181f34f32fb4bdfbb029954764736f6c63430008130033",
  "immutableReferences": {},
  "source": "pragma solidity ^0.8.19;\r\n\r\ncontract product {\r\n\r\n    bytes32[] products;\r\n    bytes32[] owners;\r\n    bytes32[] pStatus;\r\n\r\n    mapping(bytes32 => bool) public vProducts;\r\n\r\n    function setProduct(bytes32 productId,bytes32 pOwner) public{\r\n\r\n        require(!vProducts[productId]);\r\n        vProducts[productId] = true;\r\n\r\n        products.push(productId);\r\n        owners.push(pOwner);\r\n        pStatus.push(\"Tersedia\");\r\n                \r\n    }\r\n\r\n    function viewProducts () public view returns(bytes32[] memory, bytes32[] memory,bytes32[] memory) {\r\n        return(products,owners,pStatus);\r\n    }\r\n\r\n    function sellProduct (bytes32 sProductId) public {\r\n        bytes32 status;\r\n        uint i;\r\n        uint j=0;\r\n\r\n        if(products.length>0) {\r\n            for(i=0;i<products.length;i++) {\r\n                if(products[i]==sProductId) {\r\n                    j=i;\r\n                }\r\n            }\r\n        }\r\n\r\n        status=pStatus[j];\r\n        if(status==\"Tersedia\") {\r\n            pStatus[j]=\"Tidak Tersedia\";\r\n        }\r\n    }\r\n}\r\n",
  "sourcePath": "D:\\TA Blockchain\\Manajemen Toko Abid - Blockchain\\contracts\\product.sol",
  "compiler": {
    "name": "solc",
    "version": "0.8.19+commit.7dd6d404.Emscripten.clang"
  },
  "schemaVersion": "3.4.16",
  "updatedAt": "2024-01-16T13:30:58.560Z",
  "networkType": "ethereum",
  "devdoc": {
    "kind": "dev",
    "methods": {},
    "version": 1
  },
  "userdoc": {
    "kind": "user",
    "methods": {},
    "version": 1
  }
}